{
  "contractName": "AdminManager",
  "abi": [
    {
      "anonymous": false,
      "inputs": [
        {
          "indexed": true,
          "internalType": "address",
          "name": "adminAddress",
          "type": "address"
        },
        {
          "indexed": false,
          "internalType": "string",
          "name": "email",
          "type": "string"
        }
      ],
      "name": "AdminAdded",
      "type": "event"
    },
    {
      "anonymous": false,
      "inputs": [
        {
          "indexed": true,
          "internalType": "address",
          "name": "adminAddress",
          "type": "address"
        }
      ],
      "name": "AdminRemoved",
      "type": "event"
    },
    {
      "anonymous": false,
      "inputs": [
        {
          "indexed": true,
          "internalType": "address",
          "name": "previousOwner",
          "type": "address"
        },
        {
          "indexed": true,
          "internalType": "address",
          "name": "newOwner",
          "type": "address"
        }
      ],
      "name": "OwnershipTransferred",
      "type": "event"
    },
    {
      "inputs": [],
      "name": "owner",
      "outputs": [
        {
          "internalType": "address",
          "name": "",
          "type": "address"
        }
      ],
      "stateMutability": "view",
      "type": "function",
      "constant": true
    },
    {
      "inputs": [],
      "name": "renounceOwnership",
      "outputs": [],
      "stateMutability": "nonpayable",
      "type": "function"
    },
    {
      "inputs": [
        {
          "internalType": "address",
          "name": "newOwner",
          "type": "address"
        }
      ],
      "name": "transferOwnership",
      "outputs": [],
      "stateMutability": "nonpayable",
      "type": "function"
    },
    {
      "inputs": [
        {
          "internalType": "address",
          "name": "_admin",
          "type": "address"
        },
        {
          "internalType": "string",
          "name": "_email",
          "type": "string"
        },
        {
          "internalType": "bytes32",
          "name": "_passwordHash",
          "type": "bytes32"
        }
      ],
      "name": "addAdmin",
      "outputs": [],
      "stateMutability": "nonpayable",
      "type": "function"
    },
    {
      "inputs": [
        {
          "internalType": "address",
          "name": "_admin",
          "type": "address"
        }
      ],
      "name": "removeAdmin",
      "outputs": [],
      "stateMutability": "nonpayable",
      "type": "function"
    },
    {
      "inputs": [
        {
          "internalType": "address",
          "name": "_admin",
          "type": "address"
        }
      ],
      "name": "isAdmin",
      "outputs": [
        {
          "internalType": "bool",
          "name": "",
          "type": "bool"
        }
      ],
      "stateMutability": "view",
      "type": "function",
      "constant": true
    },
    {
      "inputs": [
        {
          "internalType": "address",
          "name": "_admin",
          "type": "address"
        }
      ],
      "name": "getAdminEmail",
      "outputs": [
        {
          "internalType": "string",
          "name": "",
          "type": "string"
        }
      ],
      "stateMutability": "view",
      "type": "function",
      "constant": true
    },
    {
      "inputs": [
        {
          "internalType": "address",
          "name": "_admin",
          "type": "address"
        },
        {
          "internalType": "bytes32",
          "name": "_passwordHash",
          "type": "bytes32"
        }
      ],
      "name": "verifyAdmin",
      "outputs": [
        {
          "internalType": "bool",
          "name": "",
          "type": "bool"
        }
      ],
      "stateMutability": "view",
      "type": "function",
      "constant": true
    }
  ],
  "bytecode": "0x608060405234801561001057600080fd5b5061002d61002261003260201b60201c565b61003a60201b60201c565b6100fe565b600033905090565b60008060009054906101000a900473ffffffffffffffffffffffffffffffffffffffff169050816000806101000a81548173ffffffffffffffffffffffffffffffffffffffff021916908373ffffffffffffffffffffffffffffffffffffffff1602179055508173ffffffffffffffffffffffffffffffffffffffff168173ffffffffffffffffffffffffffffffffffffffff167f8be0079c531659141344cd1fd0a4f28419497f9722a3daafe3b4186f6b6457e060405160405180910390a35050565b61100c8061010d6000396000f3fe608060405234801561001057600080fd5b50600436106100885760003560e01c80638da5cb5b1161005b5780638da5cb5b146100ff578063cce8c6581461011d578063ce9ab7731461014d578063f2fde38b1461017d57610088565b80631785f53c1461008d57806324d7806c146100a9578063256ebd76146100d9578063715018a6146100f5575b600080fd5b6100a760048036038101906100a29190610a3e565b610199565b005b6100c360048036038101906100be9190610a3e565b6102e4565b6040516100d09190610a86565b60405180910390f35b6100f360048036038101906100ee9190610c1d565b61033d565b005b6100fd6104cf565b005b6101076104e3565b6040516101149190610c9b565b60405180910390f35b61013760048036038101906101329190610cb6565b61050c565b6040516101449190610a86565b60405180910390f35b61016760048036038101906101629190610a3e565b6105b9565b6040516101749190610d7e565b60405180910390f35b61019760048036038101906101929190610a3e565b61071c565b005b6101a161079f565b600160008273ffffffffffffffffffffffffffffffffffffffff1673ffffffffffffffffffffffffffffffffffffffff16815260200190815260200160002060020160009054906101000a900460ff16610230576040517f08c379a000000000000000000000000000000000000000000000000000000000815260040161022790610dec565b60405180910390fd5b600160008273ffffffffffffffffffffffffffffffffffffffff1673ffffffffffffffffffffffffffffffffffffffff1681526020019081526020016000206000808201600061028091906108e9565b60018201600090556002820160006101000a81549060ff021916905550508073ffffffffffffffffffffffffffffffffffffffff167fa3b62bc36326052d97ea62d63c3d60308ed4c3ea8ac079dd8499f1e9c4f80c0f60405160405180910390a250565b6000600160008373ffffffffffffffffffffffffffffffffffffffff1673ffffffffffffffffffffffffffffffffffffffff16815260200190815260200160002060020160009054906101000a900460ff169050919050565b61034561079f565b600160008473ffffffffffffffffffffffffffffffffffffffff1673ffffffffffffffffffffffffffffffffffffffff16815260200190815260200160002060020160009054906101000a900460ff16156103d5576040517f08c379a00000000000000000000000000000000000000000000000000000000081526004016103cc90610e58565b60405180910390fd5b604051806060016040528083815260200182815260200160011515815250600160008573ffffffffffffffffffffffffffffffffffffffff1673ffffffffffffffffffffffffffffffffffffffff168152602001908152602001600020600082015181600001908051906020019061044e929190610929565b506020820151816001015560408201518160020160006101000a81548160ff0219169083151502179055509050508273ffffffffffffffffffffffffffffffffffffffff167f8231d1dfb3dd93aaa68bc38254b179791fc196a51aa5eb6634a19e91fa579522836040516104c29190610d7e565b60405180910390a2505050565b6104d761079f565b6104e1600061081d565b565b60008060009054906101000a900473ffffffffffffffffffffffffffffffffffffffff16905090565b6000600160008473ffffffffffffffffffffffffffffffffffffffff1673ffffffffffffffffffffffffffffffffffffffff16815260200190815260200160002060020160009054906101000a900460ff1661056b57600090506105b3565b81600160008573ffffffffffffffffffffffffffffffffffffffff1673ffffffffffffffffffffffffffffffffffffffff168152602001908152602001600020600101541490505b92915050565b6060600160008373ffffffffffffffffffffffffffffffffffffffff1673ffffffffffffffffffffffffffffffffffffffff16815260200190815260200160002060020160009054906101000a900460ff1661064a576040517f08c379a000000000000000000000000000000000000000000000000000000000815260040161064190610dec565b60405180910390fd5b600160008373ffffffffffffffffffffffffffffffffffffffff1673ffffffffffffffffffffffffffffffffffffffff168152602001908152602001600020600001805461069790610ea7565b80601f01602080910402602001604051908101604052809291908181526020018280546106c390610ea7565b80156107105780601f106106e557610100808354040283529160200191610710565b820191906000526020600020905b8154815290600101906020018083116106f357829003601f168201915b50505050509050919050565b61072461079f565b600073ffffffffffffffffffffffffffffffffffffffff168173ffffffffffffffffffffffffffffffffffffffff1603610793576040517f08c379a000000000000000000000000000000000000000000000000000000000815260040161078a90610f4a565b60405180910390fd5b61079c8161081d565b50565b6107a76108e1565b73ffffffffffffffffffffffffffffffffffffffff166107c56104e3565b73ffffffffffffffffffffffffffffffffffffffff161461081b576040517f08c379a000000000000000000000000000000000000000000000000000000000815260040161081290610fb6565b60405180910390fd5b565b60008060009054906101000a900473ffffffffffffffffffffffffffffffffffffffff169050816000806101000a81548173ffffffffffffffffffffffffffffffffffffffff021916908373ffffffffffffffffffffffffffffffffffffffff1602179055508173ffffffffffffffffffffffffffffffffffffffff168173ffffffffffffffffffffffffffffffffffffffff167f8be0079c531659141344cd1fd0a4f28419497f9722a3daafe3b4186f6b6457e060405160405180910390a35050565b600033905090565b5080546108f590610ea7565b6000825580601f106109075750610926565b601f01602090049060005260206000209081019061092591906109af565b5b50565b82805461093590610ea7565b90600052602060002090601f016020900481019282610957576000855561099e565b82601f1061097057805160ff191683800117855561099e565b8280016001018555821561099e579182015b8281111561099d578251825591602001919060010190610982565b5b5090506109ab91906109af565b5090565b5b808211156109c85760008160009055506001016109b0565b5090565b6000604051905090565b600080fd5b600080fd5b600073ffffffffffffffffffffffffffffffffffffffff82169050919050565b6000610a0b826109e0565b9050919050565b610a1b81610a00565b8114610a2657600080fd5b50565b600081359050610a3881610a12565b92915050565b600060208284031215610a5457610a536109d6565b5b6000610a6284828501610a29565b91505092915050565b60008115159050919050565b610a8081610a6b565b82525050565b6000602082019050610a9b6000830184610a77565b92915050565b600080fd5b600080fd5b6000601f19601f8301169050919050565b7f4e487b7100000000000000000000000000000000000000000000000000000000600052604160045260246000fd5b610af482610aab565b810181811067ffffffffffffffff82111715610b1357610b12610abc565b5b80604052505050565b6000610b266109cc565b9050610b328282610aeb565b919050565b600067ffffffffffffffff821115610b5257610b51610abc565b5b610b5b82610aab565b9050602081019050919050565b82818337600083830152505050565b6000610b8a610b8584610b37565b610b1c565b905082815260208101848484011115610ba657610ba5610aa6565b5b610bb1848285610b68565b509392505050565b600082601f830112610bce57610bcd610aa1565b5b8135610bde848260208601610b77565b91505092915050565b6000819050919050565b610bfa81610be7565b8114610c0557600080fd5b50565b600081359050610c1781610bf1565b92915050565b600080600060608486031215610c3657610c356109d6565b5b6000610c4486828701610a29565b935050602084013567ffffffffffffffff811115610c6557610c646109db565b5b610c7186828701610bb9565b9250506040610c8286828701610c08565b9150509250925092565b610c9581610a00565b82525050565b6000602082019050610cb06000830184610c8c565b92915050565b60008060408385031215610ccd57610ccc6109d6565b5b6000610cdb85828601610a29565b9250506020610cec85828601610c08565b9150509250929050565b600081519050919050565b600082825260208201905092915050565b60005b83811015610d30578082015181840152602081019050610d15565b83811115610d3f576000848401525b50505050565b6000610d5082610cf6565b610d5a8185610d01565b9350610d6a818560208601610d12565b610d7381610aab565b840191505092915050565b60006020820190508181036000830152610d988184610d45565b905092915050565b7f4e6f7420616e2061646d696e0000000000000000000000000000000000000000600082015250565b6000610dd6600c83610d01565b9150610de182610da0565b602082019050919050565b60006020820190508181036000830152610e0581610dc9565b9050919050565b7f41646d696e20616c726561647920657869737473000000000000000000000000600082015250565b6000610e42601483610d01565b9150610e4d82610e0c565b602082019050919050565b60006020820190508181036000830152610e7181610e35565b9050919050565b7f4e487b7100000000000000000000000000000000000000000000000000000000600052602260045260246000fd5b60006002820490506001821680610ebf57607f821691505b602082108103610ed257610ed1610e78565b5b50919050565b7f4f776e61626c653a206e6577206f776e657220697320746865207a65726f206160008201527f6464726573730000000000000000000000000000000000000000000000000000602082015250565b6000610f34602683610d01565b9150610f3f82610ed8565b604082019050919050565b60006020820190508181036000830152610f6381610f27565b9050919050565b7f4f776e61626c653a2063616c6c6572206973206e6f7420746865206f776e6572600082015250565b6000610fa0602083610d01565b9150610fab82610f6a565b602082019050919050565b60006020820190508181036000830152610fcf81610f93565b905091905056fea2646970667358221220f988c5426e4ba525a3ec459d87cae25c6baf3bba6e6cbaac6a0ad42a0738a78e64736f6c634300080d0033",
  "immutableReferences": {},
  "source": "// SPDX-License-Identifier: MIT\r\npragma solidity ^0.8.13;\r\n\r\nimport \"@openzeppelin/contracts/access/Ownable.sol\";\r\n\r\ncontract AdminManager is Ownable {\r\n    struct Admin {\r\n        string email;\r\n        bytes32 passwordHash;\r\n        bool isAdmin;\r\n    }\r\n\r\n    mapping(address => Admin) private admins;\r\n\r\n    event AdminAdded(address indexed adminAddress, string email);\r\n    event AdminRemoved(address indexed adminAddress);\r\n\r\n    modifier onlyAdmin() {\r\n        require(admins[msg.sender].isAdmin, \"Not an admin\");\r\n        _;\r\n    }\r\n\r\n    /**\r\n     * @notice Adds a new admin. Only the contract owner can do this.\r\n     * @param _admin The address of the new admin\r\n     * @param _email The email of the new admin\r\n     * @param _passwordHash The keccak256 hash of the admin's password\r\n     */\r\n    function addAdmin(\r\n        address _admin,\r\n        string memory _email,\r\n        bytes32 _passwordHash\r\n    ) external onlyOwner {\r\n        require(!admins[_admin].isAdmin, \"Admin already exists\");\r\n        admins[_admin] = Admin(_email, _passwordHash, true);\r\n        emit AdminAdded(_admin, _email);\r\n    }\r\n\r\n    /**\r\n     * @notice Removes an admin. Only the contract owner can do this.\r\n     * @param _admin The address of the admin to remove\r\n     */\r\n    function removeAdmin(address _admin) external onlyOwner {\r\n        require(admins[_admin].isAdmin, \"Not an admin\");\r\n        delete admins[_admin];\r\n        emit AdminRemoved(_admin);\r\n    }\r\n\r\n    /**\r\n     * @notice Check if an address is an admin\r\n     */\r\n    function isAdmin(address _admin) public view returns (bool) {\r\n        return admins[_admin].isAdmin;\r\n    }\r\n\r\n    /**\r\n     * @notice Get the email of an admin. Reverts if not an admin\r\n     */\r\n    function getAdminEmail(address _admin) public view returns (string memory) {\r\n        require(admins[_admin].isAdmin, \"Not an admin\");\r\n        return admins[_admin].email;\r\n    }\r\n\r\n    /**\r\n     * @notice Verifies if the provided password hash matches the stored hash for _admin\r\n     * @param _admin The admin's address\r\n     * @param _passwordHash The hashed password (keccak256)\r\n     * @return bool True if admin and hashes match, otherwise false\r\n     */\r\n    function verifyAdmin(address _admin, bytes32 _passwordHash) external view returns (bool) {\r\n        if (!admins[_admin].isAdmin) {\r\n            return false;\r\n        }\r\n        // Compare stored passwordHash with provided _passwordHash\r\n        return (admins[_admin].passwordHash == _passwordHash);\r\n    }\r\n}\r\n",
  "sourcePath": "C:\\Users\\Dell\\Desktop\\Diversion\\diversion_2k25\\contracts\\AdminManager.sol",
  "compiler": {
    "name": "solc",
    "version": "0.8.13+commit.abaa5c0e.Emscripten.clang"
  },
  "schemaVersion": "3.4.4",
  "updatedAt": "2025-02-22T18:27:54.253Z",
  "networkType": "ethereum",
  "devdoc": {
    "kind": "dev",
    "methods": {
      "addAdmin(address,string,bytes32)": {
        "params": {
          "_admin": "The address of the new admin",
          "_email": "The email of the new admin",
          "_passwordHash": "The keccak256 hash of the admin's password"
        }
      },
      "owner()": {
        "details": "Returns the address of the current owner."
      },
      "removeAdmin(address)": {
        "params": {
          "_admin": "The address of the admin to remove"
        }
      },
      "renounceOwnership()": {
        "details": "Leaves the contract without owner. It will not be possible to call `onlyOwner` functions. Can only be called by the current owner. NOTE: Renouncing ownership will leave the contract without an owner, thereby disabling any functionality that is only available to the owner."
      },
      "transferOwnership(address)": {
        "details": "Transfers ownership of the contract to a new account (`newOwner`). Can only be called by the current owner."
      },
      "verifyAdmin(address,bytes32)": {
        "params": {
          "_admin": "The admin's address",
          "_passwordHash": "The hashed password (keccak256)"
        },
        "returns": {
          "_0": "bool True if admin and hashes match, otherwise false"
        }
      }
    },
    "version": 1
  },
  "userdoc": {
    "kind": "user",
    "methods": {
      "addAdmin(address,string,bytes32)": {
        "notice": "Adds a new admin. Only the contract owner can do this."
      },
      "getAdminEmail(address)": {
        "notice": "Get the email of an admin. Reverts if not an admin"
      },
      "isAdmin(address)": {
        "notice": "Check if an address is an admin"
      },
      "removeAdmin(address)": {
        "notice": "Removes an admin. Only the contract owner can do this."
      },
      "verifyAdmin(address,bytes32)": {
        "notice": "Verifies if the provided password hash matches the stored hash for _admin"
      }
    },
    "version": 1
  }
}