{
  "contractName": "Escrow",
  "abi": [
    {
      "inputs": [],
      "stateMutability": "nonpayable",
      "type": "constructor"
    },
    {
      "anonymous": false,
      "inputs": [
        {
          "indexed": false,
          "internalType": "uint256",
          "name": "dealId",
          "type": "uint256"
        },
        {
          "indexed": true,
          "internalType": "address",
          "name": "pd",
          "type": "address"
        },
        {
          "indexed": true,
          "internalType": "address",
          "name": "freelancer",
          "type": "address"
        },
        {
          "indexed": false,
          "internalType": "uint256",
          "name": "amount",
          "type": "uint256"
        },
        {
          "indexed": false,
          "internalType": "uint256",
          "name": "deadline",
          "type": "uint256"
        }
      ],
      "name": "FundLocked",
      "type": "event"
    },
    {
      "anonymous": false,
      "inputs": [
        {
          "indexed": false,
          "internalType": "uint256",
          "name": "dealId",
          "type": "uint256"
        },
        {
          "indexed": true,
          "internalType": "address",
          "name": "pd",
          "type": "address"
        }
      ],
      "name": "FundRefunded",
      "type": "event"
    },
    {
      "anonymous": false,
      "inputs": [
        {
          "indexed": false,
          "internalType": "uint256",
          "name": "dealId",
          "type": "uint256"
        },
        {
          "indexed": true,
          "internalType": "address",
          "name": "freelancer",
          "type": "address"
        }
      ],
      "name": "FundReleased",
      "type": "event"
    },
    {
      "anonymous": false,
      "inputs": [
        {
          "indexed": false,
          "internalType": "uint256",
          "name": "dealId",
          "type": "uint256"
        },
        {
          "indexed": true,
          "internalType": "address",
          "name": "freelancer",
          "type": "address"
        },
        {
          "indexed": false,
          "internalType": "uint256",
          "name": "amount",
          "type": "uint256"
        }
      ],
      "name": "FundsWithdrawn",
      "type": "event"
    },
    {
      "anonymous": false,
      "inputs": [
        {
          "indexed": true,
          "internalType": "address",
          "name": "previousOwner",
          "type": "address"
        },
        {
          "indexed": true,
          "internalType": "address",
          "name": "newOwner",
          "type": "address"
        }
      ],
      "name": "OwnershipTransferred",
      "type": "event"
    },
    {
      "inputs": [],
      "name": "dealCounter",
      "outputs": [
        {
          "internalType": "uint256",
          "name": "",
          "type": "uint256"
        }
      ],
      "stateMutability": "view",
      "type": "function",
      "constant": true
    },
    {
      "inputs": [
        {
          "internalType": "uint256",
          "name": "",
          "type": "uint256"
        }
      ],
      "name": "deals",
      "outputs": [
        {
          "internalType": "address",
          "name": "pd",
          "type": "address"
        },
        {
          "internalType": "address",
          "name": "freelancer",
          "type": "address"
        },
        {
          "internalType": "uint256",
          "name": "amount",
          "type": "uint256"
        },
        {
          "internalType": "uint256",
          "name": "deadline",
          "type": "uint256"
        },
        {
          "internalType": "enum Escrow.State",
          "name": "state",
          "type": "uint8"
        }
      ],
      "stateMutability": "view",
      "type": "function",
      "constant": true
    },
    {
      "inputs": [],
      "name": "owner",
      "outputs": [
        {
          "internalType": "address",
          "name": "",
          "type": "address"
        }
      ],
      "stateMutability": "view",
      "type": "function",
      "constant": true
    },
    {
      "inputs": [],
      "name": "renounceOwnership",
      "outputs": [],
      "stateMutability": "nonpayable",
      "type": "function"
    },
    {
      "inputs": [
        {
          "internalType": "address",
          "name": "newOwner",
          "type": "address"
        }
      ],
      "name": "transferOwnership",
      "outputs": [],
      "stateMutability": "nonpayable",
      "type": "function"
    },
    {
      "inputs": [
        {
          "internalType": "address",
          "name": "_freelancer",
          "type": "address"
        },
        {
          "internalType": "uint256",
          "name": "_deadline",
          "type": "uint256"
        }
      ],
      "name": "lockFunds",
      "outputs": [],
      "stateMutability": "payable",
      "type": "function",
      "payable": true
    },
    {
      "inputs": [
        {
          "internalType": "uint256",
          "name": "_dealId",
          "type": "uint256"
        }
      ],
      "name": "releaseFunds",
      "outputs": [],
      "stateMutability": "nonpayable",
      "type": "function"
    },
    {
      "inputs": [
        {
          "internalType": "uint256",
          "name": "_dealId",
          "type": "uint256"
        }
      ],
      "name": "refundFunds",
      "outputs": [],
      "stateMutability": "nonpayable",
      "type": "function"
    },
    {
      "inputs": [
        {
          "internalType": "uint256",
          "name": "_dealId",
          "type": "uint256"
        }
      ],
      "name": "withdrawFunds",
      "outputs": [],
      "stateMutability": "nonpayable",
      "type": "function"
    }
  ],
  "bytecode": "0x608060405234801561001057600080fd5b5061002d61002261003260201b60201c565b61003a60201b60201c565b6100fe565b600033905090565b60008060009054906101000a900473ffffffffffffffffffffffffffffffffffffffff169050816000806101000a81548173ffffffffffffffffffffffffffffffffffffffff021916908373ffffffffffffffffffffffffffffffffffffffff1602179055508173ffffffffffffffffffffffffffffffffffffffff168173ffffffffffffffffffffffffffffffffffffffff167f8be0079c531659141344cd1fd0a4f28419497f9722a3daafe3b4186f6b6457e060405160405180910390a35050565b6115dc8061010d6000396000f3fe6080604052600436106100865760003560e01c8063217328b611610059578063217328b61461013a5780634d68282f14610165578063715018a61461018e5780638da5cb5b146101a5578063f2fde38b146101d057610086565b806303988f841461008b57806312e382b4146100cc578063155dd5ee146100e857806315f1bbfe14610111575b600080fd5b34801561009757600080fd5b506100b260048036038101906100ad9190610e4a565b6101f9565b6040516100c3959493929190610f3e565b60405180910390f35b6100e660048036038101906100e19190610fbd565b61027c565b005b3480156100f457600080fd5b5061010f600480360381019061010a9190610e4a565b6104d8565b005b34801561011d57600080fd5b5061013860048036038101906101339190610e4a565b6106cc565b005b34801561014657600080fd5b5061014f6109af565b60405161015c9190610ffd565b60405180910390f35b34801561017157600080fd5b5061018c60048036038101906101879190610e4a565b6109b5565b005b34801561019a57600080fd5b506101a3610c05565b005b3480156101b157600080fd5b506101ba610c19565b6040516101c79190611018565b60405180910390f35b3480156101dc57600080fd5b506101f760048036038101906101f29190611033565b610c42565b005b60016020528060005260406000206000915090508060000160009054906101000a900473ffffffffffffffffffffffffffffffffffffffff16908060010160009054906101000a900473ffffffffffffffffffffffffffffffffffffffff16908060020154908060030154908060040160009054906101000a900460ff16905085565b600034116102bf576040517f08c379a00000000000000000000000000000000000000000000000000000000081526004016102b6906110bd565b60405180910390fd5b428111610301576040517f08c379a00000000000000000000000000000000000000000000000000000000081526004016102f890611129565b60405180910390fd5b6002600081548092919061031490611178565b91905055506040518060a001604052803373ffffffffffffffffffffffffffffffffffffffff1681526020018373ffffffffffffffffffffffffffffffffffffffff1681526020013481526020018281526020016000600281111561037c5761037b610ec7565b5b81525060016000600254815260200190815260200160002060008201518160000160006101000a81548173ffffffffffffffffffffffffffffffffffffffff021916908373ffffffffffffffffffffffffffffffffffffffff16021790555060208201518160010160006101000a81548173ffffffffffffffffffffffffffffffffffffffff021916908373ffffffffffffffffffffffffffffffffffffffff160217905550604082015181600201556060820151816003015560808201518160040160006101000a81548160ff0219169083600281111561046157610460610ec7565b5b02179055509050508173ffffffffffffffffffffffffffffffffffffffff163373ffffffffffffffffffffffffffffffffffffffff167fcb4a885563f0e3bea0f4297ec175b7cd2ad3bd37c9ad95bedf7ae0f2637d8c3660025434856040516104cc939291906111c0565b60405180910390a35050565b60006001600083815260200190815260200160002090508060010160009054906101000a900473ffffffffffffffffffffffffffffffffffffffff1673ffffffffffffffffffffffffffffffffffffffff163373ffffffffffffffffffffffffffffffffffffffff1614610581576040517f08c379a000000000000000000000000000000000000000000000000000000000815260040161057890611243565b60405180910390fd5b6001600281111561059557610594610ec7565b5b8160040160009054906101000a900460ff1660028111156105b9576105b8610ec7565b5b146105f9576040517f08c379a00000000000000000000000000000000000000000000000000000000081526004016105f0906112af565b60405180910390fd5b600081600201549050600082600201819055508160010160009054906101000a900473ffffffffffffffffffffffffffffffffffffffff1673ffffffffffffffffffffffffffffffffffffffff166108fc829081150290604051600060405180830381858888f19350505050158015610676573d6000803e3d6000fd5b503373ffffffffffffffffffffffffffffffffffffffff167ff440aec6b52895984d061d622e6edeba6210f7c3e059be920663140c084560d784836040516106bf9291906112cf565b60405180910390a2505050565b806001600082815260200190815260200160002060000160009054906101000a900473ffffffffffffffffffffffffffffffffffffffff1673ffffffffffffffffffffffffffffffffffffffff163373ffffffffffffffffffffffffffffffffffffffff1614610771576040517f08c379a000000000000000000000000000000000000000000000000000000000815260040161076890611344565b60405180910390fd5b816000600281111561078657610785610ec7565b5b6001600083815260200190815260200160002060040160009054906101000a900460ff1660028111156107bc576107bb610ec7565b5b146107fc576040517f08c379a00000000000000000000000000000000000000000000000000000000081526004016107f3906113b0565b60405180910390fd5b60016000848152602001908152602001600020600301544211610854576040517f08c379a000000000000000000000000000000000000000000000000000000000815260040161084b9061141c565b60405180910390fd5b60026001600085815260200190815260200160002060040160006101000a81548160ff0219169083600281111561088e5761088d610ec7565b5b02179055506001600084815260200190815260200160002060000160009054906101000a900473ffffffffffffffffffffffffffffffffffffffff1673ffffffffffffffffffffffffffffffffffffffff166108fc60016000868152602001908152602001600020600201549081150290604051600060405180830381858888f19350505050158015610925573d6000803e3d6000fd5b506001600084815260200190815260200160002060000160009054906101000a900473ffffffffffffffffffffffffffffffffffffffff1673ffffffffffffffffffffffffffffffffffffffff167f13f52f9c21c3fdebc5f8818e11c76da949695a55082ae117f284a9d355856e1f846040516109a29190610ffd565b60405180910390a2505050565b60025481565b806001600082815260200190815260200160002060000160009054906101000a900473ffffffffffffffffffffffffffffffffffffffff1673ffffffffffffffffffffffffffffffffffffffff163373ffffffffffffffffffffffffffffffffffffffff1614610a5a576040517f08c379a0000000000000000000000000000000000000000000000000000000008152600401610a5190611344565b60405180910390fd5b8160006002811115610a6f57610a6e610ec7565b5b6001600083815260200190815260200160002060040160009054906101000a900460ff166002811115610aa557610aa4610ec7565b5b14610ae5576040517f08c379a0000000000000000000000000000000000000000000000000000000008152600401610adc906113b0565b60405180910390fd5b4260016000858152602001908152602001600020600301541015610b3e576040517f08c379a0000000000000000000000000000000000000000000000000000000008152600401610b3590611488565b60405180910390fd5b600180600085815260200190815260200160002060040160006101000a81548160ff02191690836002811115610b7757610b76610ec7565b5b02179055506001600084815260200190815260200160002060010160009054906101000a900473ffffffffffffffffffffffffffffffffffffffff1673ffffffffffffffffffffffffffffffffffffffff167f81eb32a5950ed9599d3b8ace742c2ad8759a49ede950f1f1279bfe2e60c40cba84604051610bf89190610ffd565b60405180910390a2505050565b610c0d610cc5565b610c176000610d43565b565b60008060009054906101000a900473ffffffffffffffffffffffffffffffffffffffff16905090565b610c4a610cc5565b600073ffffffffffffffffffffffffffffffffffffffff168173ffffffffffffffffffffffffffffffffffffffff1603610cb9576040517f08c379a0000000000000000000000000000000000000000000000000000000008152600401610cb09061151a565b60405180910390fd5b610cc281610d43565b50565b610ccd610e07565b73ffffffffffffffffffffffffffffffffffffffff16610ceb610c19565b73ffffffffffffffffffffffffffffffffffffffff1614610d41576040517f08c379a0000000000000000000000000000000000000000000000000000000008152600401610d3890611586565b60405180910390fd5b565b60008060009054906101000a900473ffffffffffffffffffffffffffffffffffffffff169050816000806101000a81548173ffffffffffffffffffffffffffffffffffffffff021916908373ffffffffffffffffffffffffffffffffffffffff1602179055508173ffffffffffffffffffffffffffffffffffffffff168173ffffffffffffffffffffffffffffffffffffffff167f8be0079c531659141344cd1fd0a4f28419497f9722a3daafe3b4186f6b6457e060405160405180910390a35050565b600033905090565b600080fd5b6000819050919050565b610e2781610e14565b8114610e3257600080fd5b50565b600081359050610e4481610e1e565b92915050565b600060208284031215610e6057610e5f610e0f565b5b6000610e6e84828501610e35565b91505092915050565b600073ffffffffffffffffffffffffffffffffffffffff82169050919050565b6000610ea282610e77565b9050919050565b610eb281610e97565b82525050565b610ec181610e14565b82525050565b7f4e487b7100000000000000000000000000000000000000000000000000000000600052602160045260246000fd5b60038110610f0757610f06610ec7565b5b50565b6000819050610f1882610ef6565b919050565b6000610f2882610f0a565b9050919050565b610f3881610f1d565b82525050565b600060a082019050610f536000830188610ea9565b610f606020830187610ea9565b610f6d6040830186610eb8565b610f7a6060830185610eb8565b610f876080830184610f2f565b9695505050505050565b610f9a81610e97565b8114610fa557600080fd5b50565b600081359050610fb781610f91565b92915050565b60008060408385031215610fd457610fd3610e0f565b5b6000610fe285828601610fa8565b9250506020610ff385828601610e35565b9150509250929050565b60006020820190506110126000830184610eb8565b92915050565b600060208201905061102d6000830184610ea9565b92915050565b60006020828403121561104957611048610e0f565b5b600061105784828501610fa8565b91505092915050565b600082825260208201905092915050565b7f5061796d656e7420726571756972656400000000000000000000000000000000600082015250565b60006110a7601083611060565b91506110b282611071565b602082019050919050565b600060208201905081810360008301526110d68161109a565b9050919050565b7f496e76616c696420646561646c696e6500000000000000000000000000000000600082015250565b6000611113601083611060565b915061111e826110dd565b602082019050919050565b6000602082019050818103600083015261114281611106565b9050919050565b7f4e487b7100000000000000000000000000000000000000000000000000000000600052601160045260246000fd5b600061118382610e14565b91507fffffffffffffffffffffffffffffffffffffffffffffffffffffffffffffffff82036111b5576111b4611149565b5b600182019050919050565b60006060820190506111d56000830186610eb8565b6111e26020830185610eb8565b6111ef6040830184610eb8565b949350505050565b7f4f6e6c7920667265656c616e6365722063616e20776974686472617700000000600082015250565b600061122d601c83611060565b9150611238826111f7565b602082019050919050565b6000602082019050818103600083015261125c81611220565b9050919050565b7f46756e6473206e6f742072656c65617365640000000000000000000000000000600082015250565b6000611299601283611060565b91506112a482611263565b602082019050919050565b600060208201905081810360008301526112c88161128c565b9050919050565b60006040820190506112e46000830185610eb8565b6112f16020830184610eb8565b9392505050565b7f4f6e6c792050442063616e20706572666f726d207468697320616374696f6e00600082015250565b600061132e601f83611060565b9150611339826112f8565b602082019050919050565b6000602082019050818103600083015261135d81611321565b9050919050565b7f496e76616c696420737461746500000000000000000000000000000000000000600082015250565b600061139a600d83611060565b91506113a582611364565b602082019050919050565b600060208201905081810360008301526113c98161138d565b9050919050565b7f446561646c696e65206e6f742079657420726561636865640000000000000000600082015250565b6000611406601883611060565b9150611411826113d0565b602082019050919050565b60006020820190508181036000830152611435816113f9565b9050919050565b7f446561646c696e65207061737365640000000000000000000000000000000000600082015250565b6000611472600f83611060565b915061147d8261143c565b602082019050919050565b600060208201905081810360008301526114a181611465565b9050919050565b7f4f776e61626c653a206e6577206f776e657220697320746865207a65726f206160008201527f6464726573730000000000000000000000000000000000000000000000000000602082015250565b6000611504602683611060565b915061150f826114a8565b604082019050919050565b60006020820190508181036000830152611533816114f7565b9050919050565b7f4f776e61626c653a2063616c6c6572206973206e6f7420746865206f776e6572600082015250565b6000611570602083611060565b915061157b8261153a565b602082019050919050565b6000602082019050818103600083015261159f81611563565b905091905056fea2646970667358221220d2fda6acfdbc5ec380ee2350bb2bd38d209b156fe47f6e681920b5780a44552b64736f6c634300080d0033",
  "immutableReferences": {},
  "source": "// SPDX-License-Identifier: MIT\npragma solidity ^0.8.13;\n\nimport \"@openzeppelin/contracts/access/Ownable.sol\";\n\ncontract Escrow is Ownable {\n    enum State { FUNDED, RELEASED, REFUNDED }  // Possible states of the escrow deal\n\n    struct Deal {\n        address pd;            // Project Distributor (who locks the funds)\n        address freelancer;    // Freelancer (who receives the funds)\n        uint256 amount;        // Amount in escrow\n        uint256 deadline;      // Deadline for project completion\n        State state;           // Current state of the deal\n    }\n\n    mapping(uint256 => Deal) public deals;\n    uint256 public dealCounter;\n\n    // Events to track transactions\n    event FundLocked(uint256 dealId, address indexed pd, address indexed freelancer, uint256 amount, uint256 deadline);\n    event FundReleased(uint256 dealId, address indexed freelancer);\n    event FundRefunded(uint256 dealId, address indexed pd);\n    event FundsWithdrawn(uint256 dealId, address indexed freelancer, uint256 amount);\n\n    // Modifier to ensure only PD can release or refund funds\n    modifier onlyProjectDistributor(uint256 _dealId) {\n        require(msg.sender == deals[_dealId].pd, \"Only PD can perform this action\");\n        _; \n    }\n\n    // Modifier to check if deal is funded\n    modifier isFunded(uint256 _dealId) {\n        require(deals[_dealId].state == State.FUNDED, \"Invalid state\");\n        _; \n    }\n\n    // Constructor to initialize the Ownable contract\n    constructor() Ownable() {}\n\n    // Function to lock funds in escrow\n    function lockFunds(address _freelancer, uint256 _deadline) external payable {\n        require(msg.value > 0, \"Payment required\");\n        require(_deadline > block.timestamp, \"Invalid deadline\");\n\n        dealCounter++;\n        deals[dealCounter] = Deal(msg.sender, _freelancer, msg.value, _deadline, State.FUNDED);\n\n        emit FundLocked(dealCounter, msg.sender, _freelancer, msg.value, _deadline);\n    }\n\n    // Function to release funds to the freelancer (Only PD can release)\n    function releaseFunds(uint256 _dealId) external onlyProjectDistributor(_dealId) isFunded(_dealId) {\n        require(deals[_dealId].deadline >= block.timestamp, \"Deadline passed\");\n\n        deals[_dealId].state = State.RELEASED;\n\n        emit FundReleased(_dealId, deals[_dealId].freelancer);\n    }\n\n    // Function to refund funds back to PD if the deadline has passed\n    function refundFunds(uint256 _dealId) external onlyProjectDistributor(_dealId) isFunded(_dealId) {\n        require(block.timestamp > deals[_dealId].deadline, \"Deadline not yet reached\");\n\n        deals[_dealId].state = State.REFUNDED;\n        payable(deals[_dealId].pd).transfer(deals[_dealId].amount);\n\n        emit FundRefunded(_dealId, deals[_dealId].pd);\n    }\n\n    // Function for freelancer to withdraw funds after release\n    function withdrawFunds(uint256 _dealId) external {\n        Deal storage deal = deals[_dealId];\n        require(msg.sender == deal.freelancer, \"Only freelancer can withdraw\");\n        require(deal.state == State.RELEASED, \"Funds not released\");\n\n        uint256 amount = deal.amount;\n        deal.amount = 0; // Prevent reentrancy attack\n        payable(deal.freelancer).transfer(amount);\n\n        emit FundsWithdrawn(_dealId, msg.sender, amount);\n    }\n}\n",
  "sourcePath": "/workspaces/diversion_2k25/contracts/Escrow.sol",
  "compiler": {
    "name": "solc",
    "version": "0.8.13+commit.abaa5c0e.Emscripten.clang"
  },
  "schemaVersion": "3.4.16",
  "updatedAt": "2025-02-22T18:07:35.272Z",
  "networkType": "ethereum",
  "devdoc": {
    "kind": "dev",
    "methods": {
      "owner()": {
        "details": "Returns the address of the current owner."
      },
      "renounceOwnership()": {
        "details": "Leaves the contract without owner. It will not be possible to call `onlyOwner` functions. Can only be called by the current owner. NOTE: Renouncing ownership will leave the contract without an owner, thereby disabling any functionality that is only available to the owner."
      },
      "transferOwnership(address)": {
        "details": "Transfers ownership of the contract to a new account (`newOwner`). Can only be called by the current owner."
      }
    },
    "version": 1
  },
  "userdoc": {
    "kind": "user",
    "methods": {},
    "version": 1
  }
}