{
  "contractName": "SBT",
  "abi": [
    {
      "inputs": [],
      "stateMutability": "nonpayable",
      "type": "constructor"
    },
    {
      "anonymous": false,
      "inputs": [
        {
          "indexed": true,
          "internalType": "address",
          "name": "owner",
          "type": "address"
        },
        {
          "indexed": true,
          "internalType": "address",
          "name": "approved",
          "type": "address"
        },
        {
          "indexed": true,
          "internalType": "uint256",
          "name": "tokenId",
          "type": "uint256"
        }
      ],
      "name": "Approval",
      "type": "event"
    },
    {
      "anonymous": false,
      "inputs": [
        {
          "indexed": true,
          "internalType": "address",
          "name": "owner",
          "type": "address"
        },
        {
          "indexed": true,
          "internalType": "address",
          "name": "operator",
          "type": "address"
        },
        {
          "indexed": false,
          "internalType": "bool",
          "name": "approved",
          "type": "bool"
        }
      ],
      "name": "ApprovalForAll",
      "type": "event"
    },
    {
      "anonymous": false,
      "inputs": [
        {
          "indexed": false,
          "internalType": "uint256",
          "name": "_fromTokenId",
          "type": "uint256"
        },
        {
          "indexed": false,
          "internalType": "uint256",
          "name": "_toTokenId",
          "type": "uint256"
        }
      ],
      "name": "BatchMetadataUpdate",
      "type": "event"
    },
    {
      "anonymous": false,
      "inputs": [
        {
          "indexed": false,
          "internalType": "uint256",
          "name": "_tokenId",
          "type": "uint256"
        }
      ],
      "name": "MetadataUpdate",
      "type": "event"
    },
    {
      "anonymous": false,
      "inputs": [
        {
          "indexed": true,
          "internalType": "address",
          "name": "previousOwner",
          "type": "address"
        },
        {
          "indexed": true,
          "internalType": "address",
          "name": "newOwner",
          "type": "address"
        }
      ],
      "name": "OwnershipTransferred",
      "type": "event"
    },
    {
      "anonymous": false,
      "inputs": [
        {
          "indexed": true,
          "internalType": "address",
          "name": "from",
          "type": "address"
        },
        {
          "indexed": true,
          "internalType": "address",
          "name": "to",
          "type": "address"
        },
        {
          "indexed": true,
          "internalType": "uint256",
          "name": "tokenId",
          "type": "uint256"
        }
      ],
      "name": "Transfer",
      "type": "event"
    },
    {
      "inputs": [
        {
          "internalType": "address",
          "name": "to",
          "type": "address"
        },
        {
          "internalType": "uint256",
          "name": "tokenId",
          "type": "uint256"
        }
      ],
      "name": "approve",
      "outputs": [],
      "stateMutability": "nonpayable",
      "type": "function"
    },
    {
      "inputs": [
        {
          "internalType": "address",
          "name": "owner",
          "type": "address"
        }
      ],
      "name": "balanceOf",
      "outputs": [
        {
          "internalType": "uint256",
          "name": "",
          "type": "uint256"
        }
      ],
      "stateMutability": "view",
      "type": "function",
      "constant": true
    },
    {
      "inputs": [
        {
          "internalType": "uint256",
          "name": "tokenId",
          "type": "uint256"
        }
      ],
      "name": "getApproved",
      "outputs": [
        {
          "internalType": "address",
          "name": "",
          "type": "address"
        }
      ],
      "stateMutability": "view",
      "type": "function",
      "constant": true
    },
    {
      "inputs": [
        {
          "internalType": "address",
          "name": "owner",
          "type": "address"
        },
        {
          "internalType": "address",
          "name": "operator",
          "type": "address"
        }
      ],
      "name": "isApprovedForAll",
      "outputs": [
        {
          "internalType": "bool",
          "name": "",
          "type": "bool"
        }
      ],
      "stateMutability": "view",
      "type": "function",
      "constant": true
    },
    {
      "inputs": [],
      "name": "name",
      "outputs": [
        {
          "internalType": "string",
          "name": "",
          "type": "string"
        }
      ],
      "stateMutability": "view",
      "type": "function",
      "constant": true
    },
    {
      "inputs": [],
      "name": "owner",
      "outputs": [
        {
          "internalType": "address",
          "name": "",
          "type": "address"
        }
      ],
      "stateMutability": "view",
      "type": "function",
      "constant": true
    },
    {
      "inputs": [
        {
          "internalType": "uint256",
          "name": "tokenId",
          "type": "uint256"
        }
      ],
      "name": "ownerOf",
      "outputs": [
        {
          "internalType": "address",
          "name": "",
          "type": "address"
        }
      ],
      "stateMutability": "view",
      "type": "function",
      "constant": true
    },
    {
      "inputs": [],
      "name": "renounceOwnership",
      "outputs": [],
      "stateMutability": "nonpayable",
      "type": "function"
    },
    {
      "inputs": [
        {
          "internalType": "address",
          "name": "from",
          "type": "address"
        },
        {
          "internalType": "address",
          "name": "to",
          "type": "address"
        },
        {
          "internalType": "uint256",
          "name": "tokenId",
          "type": "uint256"
        }
      ],
      "name": "safeTransferFrom",
      "outputs": [],
      "stateMutability": "nonpayable",
      "type": "function"
    },
    {
      "inputs": [
        {
          "internalType": "address",
          "name": "from",
          "type": "address"
        },
        {
          "internalType": "address",
          "name": "to",
          "type": "address"
        },
        {
          "internalType": "uint256",
          "name": "tokenId",
          "type": "uint256"
        },
        {
          "internalType": "bytes",
          "name": "data",
          "type": "bytes"
        }
      ],
      "name": "safeTransferFrom",
      "outputs": [],
      "stateMutability": "nonpayable",
      "type": "function"
    },
    {
      "inputs": [
        {
          "internalType": "address",
          "name": "operator",
          "type": "address"
        },
        {
          "internalType": "bool",
          "name": "approved",
          "type": "bool"
        }
      ],
      "name": "setApprovalForAll",
      "outputs": [],
      "stateMutability": "nonpayable",
      "type": "function"
    },
    {
      "inputs": [
        {
          "internalType": "bytes4",
          "name": "interfaceId",
          "type": "bytes4"
        }
      ],
      "name": "supportsInterface",
      "outputs": [
        {
          "internalType": "bool",
          "name": "",
          "type": "bool"
        }
      ],
      "stateMutability": "view",
      "type": "function",
      "constant": true
    },
    {
      "inputs": [],
      "name": "symbol",
      "outputs": [
        {
          "internalType": "string",
          "name": "",
          "type": "string"
        }
      ],
      "stateMutability": "view",
      "type": "function",
      "constant": true
    },
    {
      "inputs": [
        {
          "internalType": "uint256",
          "name": "tokenId",
          "type": "uint256"
        }
      ],
      "name": "tokenURI",
      "outputs": [
        {
          "internalType": "string",
          "name": "",
          "type": "string"
        }
      ],
      "stateMutability": "view",
      "type": "function",
      "constant": true
    },
    {
      "inputs": [
        {
          "internalType": "address",
          "name": "from",
          "type": "address"
        },
        {
          "internalType": "address",
          "name": "to",
          "type": "address"
        },
        {
          "internalType": "uint256",
          "name": "tokenId",
          "type": "uint256"
        }
      ],
      "name": "transferFrom",
      "outputs": [],
      "stateMutability": "nonpayable",
      "type": "function"
    },
    {
      "inputs": [
        {
          "internalType": "address",
          "name": "newOwner",
          "type": "address"
        }
      ],
      "name": "transferOwnership",
      "outputs": [],
      "stateMutability": "nonpayable",
      "type": "function"
    },
    {
      "inputs": [
        {
          "internalType": "address",
          "name": "",
          "type": "address"
        }
      ],
      "name": "verifiedUsers",
      "outputs": [
        {
          "internalType": "bool",
          "name": "",
          "type": "bool"
        }
      ],
      "stateMutability": "view",
      "type": "function",
      "constant": true
    },
    {
      "inputs": [
        {
          "internalType": "address",
          "name": "_to",
          "type": "address"
        },
        {
          "internalType": "string",
          "name": "_uri",
          "type": "string"
        }
      ],
      "name": "mintSBT",
      "outputs": [],
      "stateMutability": "nonpayable",
      "type": "function"
    },
    {
      "inputs": [
        {
          "internalType": "address",
          "name": "_user",
          "type": "address"
        }
      ],
      "name": "revokeSBT",
      "outputs": [],
      "stateMutability": "nonpayable",
      "type": "function"
    }
  ],
  "bytecode": "0x60806040523480156200001157600080fd5b506040518060400160405280600d81526020017f52657075746174696f6e534254000000000000000000000000000000000000008152506040518060400160405280600481526020017f5253425400000000000000000000000000000000000000000000000000000000815250816000908051906020019062000096929190620001a6565b508060019080519060200190620000af929190620001a6565b505050620000d2620000c6620000d860201b60201c565b620000e060201b60201c565b620002ba565b600033905090565b6000600760009054906101000a900473ffffffffffffffffffffffffffffffffffffffff16905081600760006101000a81548173ffffffffffffffffffffffffffffffffffffffff021916908373ffffffffffffffffffffffffffffffffffffffff1602179055508173ffffffffffffffffffffffffffffffffffffffff168173ffffffffffffffffffffffffffffffffffffffff167f8be0079c531659141344cd1fd0a4f28419497f9722a3daafe3b4186f6b6457e060405160405180910390a35050565b828054620001b49062000285565b90600052602060002090601f016020900481019282620001d8576000855562000224565b82601f10620001f357805160ff191683800117855562000224565b8280016001018555821562000224579182015b828111156200022357825182559160200191906001019062000206565b5b50905062000233919062000237565b5090565b5b808211156200025257600081600090555060010162000238565b5090565b7f4e487b7100000000000000000000000000000000000000000000000000000000600052602260045260246000fd5b600060028204905060018216806200029e57607f821691505b602082108103620002b457620002b362000256565b5b50919050565b61317d80620002ca6000396000f3fe608060405234801561001057600080fd5b50600436106101215760003560e01c80638da5cb5b116100ad578063c87b56dd11610071578063c87b56dd146102f2578063e35fe36614610322578063e985e9c514610352578063f2fde38b14610382578063f81a01e81461039e57610121565b80638da5cb5b146102625780639373f9ac1461028057806395d89b411461029c578063a22cb465146102ba578063b88d4fde146102d657610121565b806323b872dd116100f457806323b872dd146101c057806342842e0e146101dc5780636352211e146101f857806370a0823114610228578063715018a61461025857610121565b806301ffc9a71461012657806306fdde0314610156578063081812fc14610174578063095ea7b3146101a4575b600080fd5b610140600480360381019061013b919061210b565b6103ba565b60405161014d9190612153565b60405180910390f35b61015e61041b565b60405161016b9190612207565b60405180910390f35b61018e6004803603810190610189919061225f565b6104ad565b60405161019b91906122cd565b60405180910390f35b6101be60048036038101906101b99190612314565b6104f3565b005b6101da60048036038101906101d59190612354565b61060a565b005b6101f660048036038101906101f19190612354565b61066a565b005b610212600480360381019061020d919061225f565b61068a565b60405161021f91906122cd565b60405180910390f35b610242600480360381019061023d91906123a7565b610710565b60405161024f91906123e3565b60405180910390f35b6102606107c7565b005b61026a6107db565b60405161027791906122cd565b60405180910390f35b61029a60048036038101906102959190612533565b610805565b005b6102a4610926565b6040516102b19190612207565b60405180910390f35b6102d460048036038101906102cf91906125bb565b6109b8565b005b6102f060048036038101906102eb919061269c565b6109ce565b005b61030c6004803603810190610307919061225f565b610a30565b6040516103199190612207565b60405180910390f35b61033c600480360381019061033791906123a7565b610b42565b6040516103499190612153565b60405180910390f35b61036c6004803603810190610367919061271f565b610b62565b6040516103799190612153565b60405180910390f35b61039c600480360381019061039791906123a7565b610bf6565b005b6103b860048036038101906103b391906123a7565b610c79565b005b6000634906490660e01b7bffffffffffffffffffffffffffffffffffffffffffffffffffffffff1916827bffffffffffffffffffffffffffffffffffffffffffffffffffffffff19161480610414575061041382610d8d565b5b9050919050565b60606000805461042a9061278e565b80601f01602080910402602001604051908101604052809291908181526020018280546104569061278e565b80156104a35780601f10610478576101008083540402835291602001916104a3565b820191906000526020600020905b81548152906001019060200180831161048657829003601f168201915b5050505050905090565b60006104b882610e6f565b6004600083815260200190815260200160002060009054906101000a900473ffffffffffffffffffffffffffffffffffffffff169050919050565b60006104fe8261068a565b90508073ffffffffffffffffffffffffffffffffffffffff168373ffffffffffffffffffffffffffffffffffffffff160361056e576040517f08c379a000000000000000000000000000000000000000000000000000000000815260040161056590612831565b60405180910390fd5b8073ffffffffffffffffffffffffffffffffffffffff1661058d610eba565b73ffffffffffffffffffffffffffffffffffffffff1614806105bc57506105bb816105b6610eba565b610b62565b5b6105fb576040517f08c379a00000000000000000000000000000000000000000000000000000000081526004016105f2906128c3565b60405180910390fd5b6106058383610ec2565b505050565b61061b610615610eba565b82610f7b565b61065a576040517f08c379a000000000000000000000000000000000000000000000000000000000815260040161065190612955565b60405180910390fd5b610665838383611010565b505050565b610685838383604051806020016040528060008152506109ce565b505050565b60008061069683611309565b9050600073ffffffffffffffffffffffffffffffffffffffff168173ffffffffffffffffffffffffffffffffffffffff1603610707576040517f08c379a00000000000000000000000000000000000000000000000000000000081526004016106fe906129c1565b60405180910390fd5b80915050919050565b60008073ffffffffffffffffffffffffffffffffffffffff168273ffffffffffffffffffffffffffffffffffffffff1603610780576040517f08c379a000000000000000000000000000000000000000000000000000000000815260040161077790612a53565b60405180910390fd5b600360008373ffffffffffffffffffffffffffffffffffffffff1673ffffffffffffffffffffffffffffffffffffffff168152602001908152602001600020549050919050565b6107cf611346565b6107d960006113c4565b565b6000600760009054906101000a900473ffffffffffffffffffffffffffffffffffffffff16905090565b61080d611346565b600860008373ffffffffffffffffffffffffffffffffffffffff1673ffffffffffffffffffffffffffffffffffffffff16815260200190815260200160002060009054906101000a900460ff161561089a576040517f08c379a000000000000000000000000000000000000000000000000000000000815260040161089190612abf565b60405180910390fd5b60008273ffffffffffffffffffffffffffffffffffffffff1690506108bf838261148a565b6108c981836116a7565b6001600860008573ffffffffffffffffffffffffffffffffffffffff1673ffffffffffffffffffffffffffffffffffffffff16815260200190815260200160002060006101000a81548160ff021916908315150217905550505050565b6060600180546109359061278e565b80601f01602080910402602001604051908101604052809291908181526020018280546109619061278e565b80156109ae5780601f10610983576101008083540402835291602001916109ae565b820191906000526020600020905b81548152906001019060200180831161099157829003601f168201915b5050505050905090565b6109ca6109c3610eba565b8383611752565b5050565b6109df6109d9610eba565b83610f7b565b610a1e576040517f08c379a0000000000000000000000000000000000000000000000000000000008152600401610a1590612955565b60405180910390fd5b610a2a848484846118be565b50505050565b6060610a3b82610e6f565b6000600660008481526020019081526020016000208054610a5b9061278e565b80601f0160208091040260200160405190810160405280929190818152602001828054610a879061278e565b8015610ad45780601f10610aa957610100808354040283529160200191610ad4565b820191906000526020600020905b815481529060010190602001808311610ab757829003601f168201915b505050505090506000610ae561191a565b90506000815103610afa578192505050610b3d565b600082511115610b2f578082604051602001610b17929190612b1b565b60405160208183030381529060405292505050610b3d565b610b3884611931565b925050505b919050565b60086020528060005260406000206000915054906101000a900460ff1681565b6000600560008473ffffffffffffffffffffffffffffffffffffffff1673ffffffffffffffffffffffffffffffffffffffff16815260200190815260200160002060008373ffffffffffffffffffffffffffffffffffffffff1673ffffffffffffffffffffffffffffffffffffffff16815260200190815260200160002060009054906101000a900460ff16905092915050565b610bfe611346565b600073ffffffffffffffffffffffffffffffffffffffff168173ffffffffffffffffffffffffffffffffffffffff1603610c6d576040517f08c379a0000000000000000000000000000000000000000000000000000000008152600401610c6490612bb1565b60405180910390fd5b610c76816113c4565b50565b610c81611346565b600860008273ffffffffffffffffffffffffffffffffffffffff1673ffffffffffffffffffffffffffffffffffffffff16815260200190815260200160002060009054906101000a900460ff16610d0d576040517f08c379a0000000000000000000000000000000000000000000000000000000008152600401610d0490612c1d565b60405180910390fd5b60008173ffffffffffffffffffffffffffffffffffffffff169050610d3181611999565b6000600860008473ffffffffffffffffffffffffffffffffffffffff1673ffffffffffffffffffffffffffffffffffffffff16815260200190815260200160002060006101000a81548160ff0219169083151502179055505050565b60007f80ac58cd000000000000000000000000000000000000000000000000000000007bffffffffffffffffffffffffffffffffffffffffffffffffffffffff1916827bffffffffffffffffffffffffffffffffffffffffffffffffffffffff19161480610e5857507f5b5e139f000000000000000000000000000000000000000000000000000000007bffffffffffffffffffffffffffffffffffffffffffffffffffffffff1916827bffffffffffffffffffffffffffffffffffffffffffffffffffffffff1916145b80610e685750610e67826119ec565b5b9050919050565b610e7881611a56565b610eb7576040517f08c379a0000000000000000000000000000000000000000000000000000000008152600401610eae906129c1565b60405180910390fd5b50565b600033905090565b816004600083815260200190815260200160002060006101000a81548173ffffffffffffffffffffffffffffffffffffffff021916908373ffffffffffffffffffffffffffffffffffffffff160217905550808273ffffffffffffffffffffffffffffffffffffffff16610f358361068a565b73ffffffffffffffffffffffffffffffffffffffff167f8c5be1e5ebec7d5bd14f71427d1e84f3dd0314c0f7b2291e5b200ac8c7c3b92560405160405180910390a45050565b600080610f878361068a565b90508073ffffffffffffffffffffffffffffffffffffffff168473ffffffffffffffffffffffffffffffffffffffff161480610fc95750610fc88185610b62565b5b8061100757508373ffffffffffffffffffffffffffffffffffffffff16610fef846104ad565b73ffffffffffffffffffffffffffffffffffffffff16145b91505092915050565b8273ffffffffffffffffffffffffffffffffffffffff166110308261068a565b73ffffffffffffffffffffffffffffffffffffffff1614611086576040517f08c379a000000000000000000000000000000000000000000000000000000000815260040161107d90612caf565b60405180910390fd5b600073ffffffffffffffffffffffffffffffffffffffff168273ffffffffffffffffffffffffffffffffffffffff16036110f5576040517f08c379a00000000000000000000000000000000000000000000000000000000081526004016110ec90612d41565b60405180910390fd5b6111028383836001611a97565b8273ffffffffffffffffffffffffffffffffffffffff166111228261068a565b73ffffffffffffffffffffffffffffffffffffffff1614611178576040517f08c379a000000000000000000000000000000000000000000000000000000000815260040161116f90612caf565b60405180910390fd5b6004600082815260200190815260200160002060006101000a81549073ffffffffffffffffffffffffffffffffffffffff02191690556001600360008573ffffffffffffffffffffffffffffffffffffffff1673ffffffffffffffffffffffffffffffffffffffff168152602001908152602001600020600082825403925050819055506001600360008473ffffffffffffffffffffffffffffffffffffffff1673ffffffffffffffffffffffffffffffffffffffff16815260200190815260200160002060008282540192505081905550816002600083815260200190815260200160002060006101000a81548173ffffffffffffffffffffffffffffffffffffffff021916908373ffffffffffffffffffffffffffffffffffffffff160217905550808273ffffffffffffffffffffffffffffffffffffffff168473ffffffffffffffffffffffffffffffffffffffff167fddf252ad1be2c89b69c2b068fc378daa952ba7f163c4a11628f55a4df523b3ef60405160405180910390a46113048383836001611a9d565b505050565b60006002600083815260200190815260200160002060009054906101000a900473ffffffffffffffffffffffffffffffffffffffff169050919050565b61134e610eba565b73ffffffffffffffffffffffffffffffffffffffff1661136c6107db565b73ffffffffffffffffffffffffffffffffffffffff16146113c2576040517f08c379a00000000000000000000000000000000000000000000000000000000081526004016113b990612dad565b60405180910390fd5b565b6000600760009054906101000a900473ffffffffffffffffffffffffffffffffffffffff16905081600760006101000a81548173ffffffffffffffffffffffffffffffffffffffff021916908373ffffffffffffffffffffffffffffffffffffffff1602179055508173ffffffffffffffffffffffffffffffffffffffff168173ffffffffffffffffffffffffffffffffffffffff167f8be0079c531659141344cd1fd0a4f28419497f9722a3daafe3b4186f6b6457e060405160405180910390a35050565b600073ffffffffffffffffffffffffffffffffffffffff168273ffffffffffffffffffffffffffffffffffffffff16036114f9576040517f08c379a00000000000000000000000000000000000000000000000000000000081526004016114f090612e19565b60405180910390fd5b61150281611a56565b15611542576040517f08c379a000000000000000000000000000000000000000000000000000000000815260040161153990612e85565b60405180910390fd5b611550600083836001611a97565b61155981611a56565b15611599576040517f08c379a000000000000000000000000000000000000000000000000000000000815260040161159090612e85565b60405180910390fd5b6001600360008473ffffffffffffffffffffffffffffffffffffffff1673ffffffffffffffffffffffffffffffffffffffff16815260200190815260200160002060008282540192505081905550816002600083815260200190815260200160002060006101000a81548173ffffffffffffffffffffffffffffffffffffffff021916908373ffffffffffffffffffffffffffffffffffffffff160217905550808273ffffffffffffffffffffffffffffffffffffffff16600073ffffffffffffffffffffffffffffffffffffffff167fddf252ad1be2c89b69c2b068fc378daa952ba7f163c4a11628f55a4df523b3ef60405160405180910390a46116a3600083836001611a9d565b5050565b6116b082611a56565b6116ef576040517f08c379a00000000000000000000000000000000000000000000000000000000081526004016116e690612f17565b60405180910390fd5b80600660008481526020019081526020016000209080519060200190611716929190611fbc565b507ff8e1a15aba9398e019f0b49df1a4fde98ee17ae345cb5f6b5e2c27f5033e8ce78260405161174691906123e3565b60405180910390a15050565b8173ffffffffffffffffffffffffffffffffffffffff168373ffffffffffffffffffffffffffffffffffffffff16036117c0576040517f08c379a00000000000000000000000000000000000000000000000000000000081526004016117b790612f83565b60405180910390fd5b80600560008573ffffffffffffffffffffffffffffffffffffffff1673ffffffffffffffffffffffffffffffffffffffff16815260200190815260200160002060008473ffffffffffffffffffffffffffffffffffffffff1673ffffffffffffffffffffffffffffffffffffffff16815260200190815260200160002060006101000a81548160ff0219169083151502179055508173ffffffffffffffffffffffffffffffffffffffff168373ffffffffffffffffffffffffffffffffffffffff167f17307eab39ab6107e8899845ad3d59bd9653f200f220920489ca2b5937696c31836040516118b19190612153565b60405180910390a3505050565b6118c9848484611010565b6118d584848484611aa3565b611914576040517f08c379a000000000000000000000000000000000000000000000000000000000815260040161190b90613015565b60405180910390fd5b50505050565b606060405180602001604052806000815250905090565b606061193c82610e6f565b600061194661191a565b905060008151116119665760405180602001604052806000815250611991565b8061197084611c2a565b604051602001611981929190612b1b565b6040516020818303038152906040525b915050919050565b6119a281611cf8565b60006006600083815260200190815260200160002080546119c29061278e565b9050146119e9576006600082815260200190815260200160002060006119e89190612042565b5b50565b60007f01ffc9a7000000000000000000000000000000000000000000000000000000007bffffffffffffffffffffffffffffffffffffffffffffffffffffffff1916827bffffffffffffffffffffffffffffffffffffffffffffffffffffffff1916149050919050565b60008073ffffffffffffffffffffffffffffffffffffffff16611a7883611309565b73ffffffffffffffffffffffffffffffffffffffff1614159050919050565b50505050565b50505050565b6000611ac48473ffffffffffffffffffffffffffffffffffffffff16611e46565b15611c1d578373ffffffffffffffffffffffffffffffffffffffff1663150b7a02611aed610eba565b8786866040518563ffffffff1660e01b8152600401611b0f949392919061308a565b6020604051808303816000875af1925050508015611b4b57506040513d601f19601f82011682018060405250810190611b4891906130eb565b60015b611bcd573d8060008114611b7b576040519150601f19603f3d011682016040523d82523d6000602084013e611b80565b606091505b506000815103611bc5576040517f08c379a0000000000000000000000000000000000000000000000000000000008152600401611bbc90613015565b60405180910390fd5b805181602001fd5b63150b7a0260e01b7bffffffffffffffffffffffffffffffffffffffffffffffffffffffff1916817bffffffffffffffffffffffffffffffffffffffffffffffffffffffff191614915050611c22565b600190505b949350505050565b606060006001611c3984611e69565b01905060008167ffffffffffffffff811115611c5857611c57612408565b5b6040519080825280601f01601f191660200182016040528015611c8a5781602001600182028036833780820191505090505b509050600082602001820190505b600115611ced578080600190039150507f3031323334353637383961626364656600000000000000000000000000000000600a86061a8153600a8581611ce157611ce0613118565b5b04945060008503611c98575b819350505050919050565b6000611d038261068a565b9050611d13816000846001611a97565b611d1c8261068a565b90506004600083815260200190815260200160002060006101000a81549073ffffffffffffffffffffffffffffffffffffffff02191690556001600360008373ffffffffffffffffffffffffffffffffffffffff1673ffffffffffffffffffffffffffffffffffffffff168152602001908152602001600020600082825403925050819055506002600083815260200190815260200160002060006101000a81549073ffffffffffffffffffffffffffffffffffffffff021916905581600073ffffffffffffffffffffffffffffffffffffffff168273ffffffffffffffffffffffffffffffffffffffff167fddf252ad1be2c89b69c2b068fc378daa952ba7f163c4a11628f55a4df523b3ef60405160405180910390a4611e42816000846001611a9d565b5050565b6000808273ffffffffffffffffffffffffffffffffffffffff163b119050919050565b600080600090507a184f03e93ff9f4daa797ed6e38ed64bf6a1f0100000000000000008310611ec7577a184f03e93ff9f4daa797ed6e38ed64bf6a1f0100000000000000008381611ebd57611ebc613118565b5b0492506040810190505b6d04ee2d6d415b85acef81000000008310611f04576d04ee2d6d415b85acef81000000008381611efa57611ef9613118565b5b0492506020810190505b662386f26fc100008310611f3357662386f26fc100008381611f2957611f28613118565b5b0492506010810190505b6305f5e1008310611f5c576305f5e1008381611f5257611f51613118565b5b0492506008810190505b6127108310611f81576127108381611f7757611f76613118565b5b0492506004810190505b60648310611fa45760648381611f9a57611f99613118565b5b0492506002810190505b600a8310611fb3576001810190505b80915050919050565b828054611fc89061278e565b90600052602060002090601f016020900481019282611fea5760008555612031565b82601f1061200357805160ff1916838001178555612031565b82800160010185558215612031579182015b82811115612030578251825591602001919060010190612015565b5b50905061203e9190612082565b5090565b50805461204e9061278e565b6000825580601f10612060575061207f565b601f01602090049060005260206000209081019061207e9190612082565b5b50565b5b8082111561209b576000816000905550600101612083565b5090565b6000604051905090565b600080fd5b600080fd5b60007fffffffff0000000000000000000000000000000000000000000000000000000082169050919050565b6120e8816120b3565b81146120f357600080fd5b50565b600081359050612105816120df565b92915050565b600060208284031215612121576121206120a9565b5b600061212f848285016120f6565b91505092915050565b60008115159050919050565b61214d81612138565b82525050565b60006020820190506121686000830184612144565b92915050565b600081519050919050565b600082825260208201905092915050565b60005b838110156121a857808201518184015260208101905061218d565b838111156121b7576000848401525b50505050565b6000601f19601f8301169050919050565b60006121d98261216e565b6121e38185612179565b93506121f381856020860161218a565b6121fc816121bd565b840191505092915050565b6000602082019050818103600083015261222181846121ce565b905092915050565b6000819050919050565b61223c81612229565b811461224757600080fd5b50565b60008135905061225981612233565b92915050565b600060208284031215612275576122746120a9565b5b60006122838482850161224a565b91505092915050565b600073ffffffffffffffffffffffffffffffffffffffff82169050919050565b60006122b78261228c565b9050919050565b6122c7816122ac565b82525050565b60006020820190506122e260008301846122be565b92915050565b6122f1816122ac565b81146122fc57600080fd5b50565b60008135905061230e816122e8565b92915050565b6000806040838503121561232b5761232a6120a9565b5b6000612339858286016122ff565b925050602061234a8582860161224a565b9150509250929050565b60008060006060848603121561236d5761236c6120a9565b5b600061237b868287016122ff565b935050602061238c868287016122ff565b925050604061239d8682870161224a565b9150509250925092565b6000602082840312156123bd576123bc6120a9565b5b60006123cb848285016122ff565b91505092915050565b6123dd81612229565b82525050565b60006020820190506123f860008301846123d4565b92915050565b600080fd5b600080fd5b7f4e487b7100000000000000000000000000000000000000000000000000000000600052604160045260246000fd5b612440826121bd565b810181811067ffffffffffffffff8211171561245f5761245e612408565b5b80604052505050565b600061247261209f565b905061247e8282612437565b919050565b600067ffffffffffffffff82111561249e5761249d612408565b5b6124a7826121bd565b9050602081019050919050565b82818337600083830152505050565b60006124d66124d184612483565b612468565b9050828152602081018484840111156124f2576124f1612403565b5b6124fd8482856124b4565b509392505050565b600082601f83011261251a576125196123fe565b5b813561252a8482602086016124c3565b91505092915050565b6000806040838503121561254a576125496120a9565b5b6000612558858286016122ff565b925050602083013567ffffffffffffffff811115612579576125786120ae565b5b61258585828601612505565b9150509250929050565b61259881612138565b81146125a357600080fd5b50565b6000813590506125b58161258f565b92915050565b600080604083850312156125d2576125d16120a9565b5b60006125e0858286016122ff565b92505060206125f1858286016125a6565b9150509250929050565b600067ffffffffffffffff82111561261657612615612408565b5b61261f826121bd565b9050602081019050919050565b600061263f61263a846125fb565b612468565b90508281526020810184848401111561265b5761265a612403565b5b6126668482856124b4565b509392505050565b600082601f830112612683576126826123fe565b5b813561269384826020860161262c565b91505092915050565b600080600080608085870312156126b6576126b56120a9565b5b60006126c4878288016122ff565b94505060206126d5878288016122ff565b93505060406126e68782880161224a565b925050606085013567ffffffffffffffff811115612707576127066120ae565b5b6127138782880161266e565b91505092959194509250565b60008060408385031215612736576127356120a9565b5b6000612744858286016122ff565b9250506020612755858286016122ff565b9150509250929050565b7f4e487b7100000000000000000000000000000000000000000000000000000000600052602260045260246000fd5b600060028204905060018216806127a657607f821691505b6020821081036127b9576127b861275f565b5b50919050565b7f4552433732313a20617070726f76616c20746f2063757272656e74206f776e6560008201527f7200000000000000000000000000000000000000000000000000000000000000602082015250565b600061281b602183612179565b9150612826826127bf565b604082019050919050565b6000602082019050818103600083015261284a8161280e565b9050919050565b7f4552433732313a20617070726f76652063616c6c6572206973206e6f7420746f60008201527f6b656e206f776e6572206f7220617070726f76656420666f7220616c6c000000602082015250565b60006128ad603d83612179565b91506128b882612851565b604082019050919050565b600060208201905081810360008301526128dc816128a0565b9050919050565b7f4552433732313a2063616c6c6572206973206e6f7420746f6b656e206f776e6560008201527f72206f7220617070726f76656400000000000000000000000000000000000000602082015250565b600061293f602d83612179565b915061294a826128e3565b604082019050919050565b6000602082019050818103600083015261296e81612932565b9050919050565b7f4552433732313a20696e76616c696420746f6b656e2049440000000000000000600082015250565b60006129ab601883612179565b91506129b682612975565b602082019050919050565b600060208201905081810360008301526129da8161299e565b9050919050565b7f4552433732313a2061646472657373207a65726f206973206e6f74206120766160008201527f6c6964206f776e65720000000000000000000000000000000000000000000000602082015250565b6000612a3d602983612179565b9150612a48826129e1565b604082019050919050565b60006020820190508181036000830152612a6c81612a30565b9050919050565b7f416c72656164792068617320616e205342540000000000000000000000000000600082015250565b6000612aa9601283612179565b9150612ab482612a73565b602082019050919050565b60006020820190508181036000830152612ad881612a9c565b9050919050565b600081905092915050565b6000612af58261216e565b612aff8185612adf565b9350612b0f81856020860161218a565b80840191505092915050565b6000612b278285612aea565b9150612b338284612aea565b91508190509392505050565b7f4f776e61626c653a206e6577206f776e657220697320746865207a65726f206160008201527f6464726573730000000000000000000000000000000000000000000000000000602082015250565b6000612b9b602683612179565b9150612ba682612b3f565b604082019050919050565b60006020820190508181036000830152612bca81612b8e565b9050919050565b7f4e6f205342542061737369676e65640000000000000000000000000000000000600082015250565b6000612c07600f83612179565b9150612c1282612bd1565b602082019050919050565b60006020820190508181036000830152612c3681612bfa565b9050919050565b7f4552433732313a207472616e736665722066726f6d20696e636f72726563742060008201527f6f776e6572000000000000000000000000000000000000000000000000000000602082015250565b6000612c99602583612179565b9150612ca482612c3d565b604082019050919050565b60006020820190508181036000830152612cc881612c8c565b9050919050565b7f4552433732313a207472616e7366657220746f20746865207a65726f2061646460008201527f7265737300000000000000000000000000000000000000000000000000000000602082015250565b6000612d2b602483612179565b9150612d3682612ccf565b604082019050919050565b60006020820190508181036000830152612d5a81612d1e565b9050919050565b7f4f776e61626c653a2063616c6c6572206973206e6f7420746865206f776e6572600082015250565b6000612d97602083612179565b9150612da282612d61565b602082019050919050565b60006020820190508181036000830152612dc681612d8a565b9050919050565b7f4552433732313a206d696e7420746f20746865207a65726f2061646472657373600082015250565b6000612e03602083612179565b9150612e0e82612dcd565b602082019050919050565b60006020820190508181036000830152612e3281612df6565b9050919050565b7f4552433732313a20746f6b656e20616c7265616479206d696e74656400000000600082015250565b6000612e6f601c83612179565b9150612e7a82612e39565b602082019050919050565b60006020820190508181036000830152612e9e81612e62565b9050919050565b7f45524337323155524953746f726167653a2055524920736574206f66206e6f6e60008201527f6578697374656e7420746f6b656e000000000000000000000000000000000000602082015250565b6000612f01602e83612179565b9150612f0c82612ea5565b604082019050919050565b60006020820190508181036000830152612f3081612ef4565b9050919050565b7f4552433732313a20617070726f766520746f2063616c6c657200000000000000600082015250565b6000612f6d601983612179565b9150612f7882612f37565b602082019050919050565b60006020820190508181036000830152612f9c81612f60565b9050919050565b7f4552433732313a207472616e7366657220746f206e6f6e20455243373231526560008201527f63656976657220696d706c656d656e7465720000000000000000000000000000602082015250565b6000612fff603283612179565b915061300a82612fa3565b604082019050919050565b6000602082019050818103600083015261302e81612ff2565b9050919050565b600081519050919050565b600082825260208201905092915050565b600061305c82613035565b6130668185613040565b935061307681856020860161218a565b61307f816121bd565b840191505092915050565b600060808201905061309f60008301876122be565b6130ac60208301866122be565b6130b960408301856123d4565b81810360608301526130cb8184613051565b905095945050505050565b6000815190506130e5816120df565b92915050565b600060208284031215613101576131006120a9565b5b600061310f848285016130d6565b91505092915050565b7f4e487b7100000000000000000000000000000000000000000000000000000000600052601260045260246000fdfea26469706673582212204c5af51a5744ae34fdc5c13da61313385dfe2d36404f13395e8d3006415bd2b964736f6c634300080d0033",
  "immutableReferences": {},
  "source": "// SPDX-License-Identifier: MIT\r\npragma solidity ^0.8.13;\r\n\r\nimport \"@openzeppelin/contracts/token/ERC721/extensions/ERC721URIStorage.sol\";\r\nimport \"@openzeppelin/contracts/access/Ownable.sol\";\r\n\r\ncontract SBT is ERC721URIStorage, Ownable {\r\n    mapping(address => bool) public verifiedUsers;\r\n\r\n    constructor() ERC721(\"ReputationSBT\", \"RSBT\") Ownable() {}\r\n\r\n    function mintSBT(address _to, string memory _uri) external onlyOwner {\r\n        require(!verifiedUsers[_to], \"Already has an SBT\");\r\n\r\n        uint256 tokenId = uint256(uint160(_to));\r\n        _mint(_to, tokenId);\r\n        _setTokenURI(tokenId, _uri);\r\n\r\n        verifiedUsers[_to] = true;\r\n    }\r\n\r\n    function revokeSBT(address _user) external onlyOwner {\r\n        require(verifiedUsers[_user], \"No SBT assigned\");\r\n\r\n        uint256 tokenId = uint256(uint160(_user));\r\n        _burn(tokenId);\r\n\r\n        verifiedUsers[_user] = false;\r\n    }\r\n}\r\n",
  "sourcePath": "C:\\Users\\Dell\\Desktop\\Diversion\\diversion_2k25\\contracts\\SBT.sol",
  "compiler": {
    "name": "solc",
    "version": "0.8.13+commit.abaa5c0e.Emscripten.clang"
  },
  "schemaVersion": "3.4.4",
  "updatedAt": "2025-02-22T18:27:54.242Z",
  "networkType": "ethereum",
  "devdoc": {
    "kind": "dev",
    "methods": {
      "approve(address,uint256)": {
        "details": "See {IERC721-approve}."
      },
      "balanceOf(address)": {
        "details": "See {IERC721-balanceOf}."
      },
      "getApproved(uint256)": {
        "details": "See {IERC721-getApproved}."
      },
      "isApprovedForAll(address,address)": {
        "details": "See {IERC721-isApprovedForAll}."
      },
      "name()": {
        "details": "See {IERC721Metadata-name}."
      },
      "owner()": {
        "details": "Returns the address of the current owner."
      },
      "ownerOf(uint256)": {
        "details": "See {IERC721-ownerOf}."
      },
      "renounceOwnership()": {
        "details": "Leaves the contract without owner. It will not be possible to call `onlyOwner` functions. Can only be called by the current owner. NOTE: Renouncing ownership will leave the contract without an owner, thereby disabling any functionality that is only available to the owner."
      },
      "safeTransferFrom(address,address,uint256)": {
        "details": "See {IERC721-safeTransferFrom}."
      },
      "safeTransferFrom(address,address,uint256,bytes)": {
        "details": "See {IERC721-safeTransferFrom}."
      },
      "setApprovalForAll(address,bool)": {
        "details": "See {IERC721-setApprovalForAll}."
      },
      "supportsInterface(bytes4)": {
        "details": "See {IERC165-supportsInterface}"
      },
      "symbol()": {
        "details": "See {IERC721Metadata-symbol}."
      },
      "tokenURI(uint256)": {
        "details": "See {IERC721Metadata-tokenURI}."
      },
      "transferFrom(address,address,uint256)": {
        "details": "See {IERC721-transferFrom}."
      },
      "transferOwnership(address)": {
        "details": "Transfers ownership of the contract to a new account (`newOwner`). Can only be called by the current owner."
      }
    },
    "version": 1
  },
  "userdoc": {
    "kind": "user",
    "methods": {},
    "version": 1
  }
}